{
  "contractName": "ComicStore",
  "abi": [
    {
      "inputs": [
        {
          "internalType": "string",
          "name": "_storeName",
          "type": "string"
        },
        {
          "internalType": "address",
          "name": "_storeOwner",
          "type": "address"
        },
        {
          "internalType": "uint256",
          "name": "_TaxPercent",
          "type": "uint256"
        }
      ],
      "stateMutability": "nonpayable",
      "type": "constructor"
    },
    {
      "anonymous": false,
      "inputs": [
        {
          "indexed": true,
          "internalType": "address",
          "name": "buyer",
          "type": "address"
        },
        {
          "indexed": true,
          "internalType": "address",
          "name": "seller",
          "type": "address"
        },
        {
          "indexed": false,
          "internalType": "uint256",
          "name": "amount",
          "type": "uint256"
        },
        {
          "indexed": false,
          "internalType": "uint256",
          "name": "timestamp",
          "type": "uint256"
        }
      ],
      "name": "Sale",
      "type": "event"
    },
    {
      "anonymous": false,
      "inputs": [
        {
          "indexed": true,
          "internalType": "address",
          "name": "receiver",
          "type": "address"
        },
        {
          "indexed": false,
          "internalType": "uint256",
          "name": "amount",
          "type": "uint256"
        },
        {
          "indexed": false,
          "internalType": "uint256",
          "name": "timestamp",
          "type": "uint256"
        }
      ],
      "name": "Withdrawal",
      "type": "event"
    },
    {
      "inputs": [],
      "name": "TaxPercent",
      "outputs": [
        {
          "internalType": "uint256",
          "name": "",
          "type": "uint256"
        }
      ],
      "stateMutability": "view",
      "type": "function",
      "constant": true
    },
    {
      "inputs": [
        {
          "internalType": "address",
          "name": "",
          "type": "address"
        }
      ],
      "name": "salesOf",
      "outputs": [
        {
          "internalType": "uint256",
          "name": "",
          "type": "uint256"
        }
      ],
      "stateMutability": "view",
      "type": "function",
      "constant": true
    },
    {
      "inputs": [],
      "name": "storeAcc",
      "outputs": [
        {
          "internalType": "uint256",
          "name": "",
          "type": "uint256"
        }
      ],
      "stateMutability": "view",
      "type": "function",
      "constant": true
    },
    {
      "inputs": [],
      "name": "storeName",
      "outputs": [
        {
          "internalType": "string",
          "name": "",
          "type": "string"
        }
      ],
      "stateMutability": "view",
      "type": "function",
      "constant": true
    },
    {
      "inputs": [],
      "name": "storeOwner",
      "outputs": [
        {
          "internalType": "address",
          "name": "",
          "type": "address"
        }
      ],
      "stateMutability": "view",
      "type": "function",
      "constant": true
    },
    {
      "inputs": [],
      "name": "storeSales",
      "outputs": [
        {
          "internalType": "uint256",
          "name": "",
          "type": "uint256"
        }
      ],
      "stateMutability": "view",
      "type": "function",
      "constant": true
    },
    {
      "inputs": [
        {
          "internalType": "address",
          "name": "seller",
          "type": "address"
        },
        {
          "internalType": "string",
          "name": "purpose",
          "type": "string"
        }
      ],
      "name": "payNow",
      "outputs": [
        {
          "internalType": "bool",
          "name": "success",
          "type": "bool"
        }
      ],
      "stateMutability": "payable",
      "type": "function",
      "payable": true
    },
    {
      "inputs": [],
      "name": "getAllSales",
      "outputs": [
        {
          "components": [
            {
              "internalType": "address",
              "name": "buyer",
              "type": "address"
            },
            {
              "internalType": "address",
              "name": "seller",
              "type": "address"
            },
            {
              "internalType": "uint256",
              "name": "amount",
              "type": "uint256"
            },
            {
              "internalType": "string",
              "name": "purpose",
              "type": "string"
            },
            {
              "internalType": "uint256",
              "name": "timestamp",
              "type": "uint256"
            }
          ],
          "internalType": "struct ComicStore.SalesStruct[]",
          "name": "",
          "type": "tuple[]"
        }
      ],
      "stateMutability": "view",
      "type": "function",
      "constant": true
    }
  ],
  "bytecode": "0x60c06040523480156200001157600080fd5b5060405162001b8b38038062001b8b8339818101604052810190620000379190620002d2565b82600190816200004891906200058e565b508173ffffffffffffffffffffffffffffffffffffffff1660808173ffffffffffffffffffffffffffffffffffffffff16815250508060a081815250506000808190555050505062000675565b6000604051905090565b600080fd5b600080fd5b600080fd5b600080fd5b6000601f19601f8301169050919050565b7f4e487b7100000000000000000000000000000000000000000000000000000000600052604160045260246000fd5b620000fe82620000b3565b810181811067ffffffffffffffff8211171562000120576200011f620000c4565b5b80604052505050565b60006200013562000095565b9050620001438282620000f3565b919050565b600067ffffffffffffffff821115620001665762000165620000c4565b5b6200017182620000b3565b9050602081019050919050565b60005b838110156200019e57808201518184015260208101905062000181565b83811115620001ae576000848401525b50505050565b6000620001cb620001c58462000148565b62000129565b905082815260208101848484011115620001ea57620001e9620000ae565b5b620001f78482856200017e565b509392505050565b600082601f830112620002175762000216620000a9565b5b815162000229848260208601620001b4565b91505092915050565b600073ffffffffffffffffffffffffffffffffffffffff82169050919050565b60006200025f8262000232565b9050919050565b620002718162000252565b81146200027d57600080fd5b50565b600081519050620002918162000266565b92915050565b6000819050919050565b620002ac8162000297565b8114620002b857600080fd5b50565b600081519050620002cc81620002a1565b92915050565b600080600060608486031215620002ee57620002ed6200009f565b5b600084015167ffffffffffffffff8111156200030f576200030e620000a4565b5b6200031d86828701620001ff565b9350506020620003308682870162000280565b92505060406200034386828701620002bb565b9150509250925092565b600081519050919050565b7f4e487b7100000000000000000000000000000000000000000000000000000000600052602260045260246000fd5b60006002820490506001821680620003a057607f821691505b602082108103620003b657620003b562000358565b5b50919050565b60008190508160005260206000209050919050565b60006020601f8301049050919050565b600082821b905092915050565b600060088302620004207fffffffffffffffffffffffffffffffffffffffffffffffffffffffffffffffff82620003e1565b6200042c8683620003e1565b95508019841693508086168417925050509392505050565b6000819050919050565b60006200046f62000469620004638462000297565b62000444565b62000297565b9050919050565b6000819050919050565b6200048b836200044e565b620004a36200049a8262000476565b848454620003ee565b825550505050565b600090565b620004ba620004ab565b620004c781848462000480565b505050565b5b81811015620004ef57620004e3600082620004b0565b600181019050620004cd565b5050565b601f8211156200053e576200050881620003bc565b6200051384620003d1565b8101602085101562000523578190505b6200053b6200053285620003d1565b830182620004cc565b50505b505050565b600082821c905092915050565b6000620005636000198460080262000543565b1980831691505092915050565b60006200057e838362000550565b9150826002028217905092915050565b62000599826200034d565b67ffffffffffffffff811115620005b557620005b4620000c4565b5b620005c1825462000387565b620005ce828285620004f3565b600060209050601f831160018114620006065760008415620005f1578287015190505b620005fd858262000570565b8655506200066d565b601f1984166200061686620003bc565b60005b82811015620006405784890151825560018201915060208501945060208101905062000619565b868310156200066057848901516200065c601f89168262000550565b8355505b6001600288020188555050505b505050505050565b60805160a0516114db620006b0600039600081816101f1015261055201526000818161045a015281816104c2015261062801526114db6000f3fe60806040526004361061007b5760003560e01c8063818fb3e01161004e578063818fb3e01461012c578063db53f54814610157578063dd88060914610187578063e9b44eeb146101c45761007b565b80630be5b10b1461008057806333396917146100ab57806340152d5c146100d6578063521936e614610101575b600080fd5b34801561008c57600080fd5b506100956101ef565b6040516100a29190610979565b60405180910390f35b3480156100b757600080fd5b506100c0610213565b6040516100cd9190610bb5565b60405180910390f35b3480156100e257600080fd5b506100eb6103c4565b6040516100f89190610979565b60405180910390f35b34801561010d57600080fd5b506101166103ca565b6040516101239190610c21565b60405180910390f35b34801561013857600080fd5b50610141610458565b60405161014e9190610c52565b60405180910390f35b610171600480360381019061016c9190610de2565b61047c565b60405161017e9190610e59565b60405180910390f35b34801561019357600080fd5b506101ae60048036038101906101a99190610e74565b610804565b6040516101bb9190610979565b60405180910390f35b3480156101d057600080fd5b506101d961081c565b6040516101e69190610979565b60405180910390f35b7f000000000000000000000000000000000000000000000000000000000000000081565b60606004805480602002602001604051908101604052809291908181526020016000905b828210156103bb57838290600052602060002090600502016040518060a00160405290816000820160009054906101000a900473ffffffffffffffffffffffffffffffffffffffff1673ffffffffffffffffffffffffffffffffffffffff1673ffffffffffffffffffffffffffffffffffffffff1681526020016001820160009054906101000a900473ffffffffffffffffffffffffffffffffffffffff1673ffffffffffffffffffffffffffffffffffffffff1673ffffffffffffffffffffffffffffffffffffffff1681526020016002820154815260200160038201805461032090610ed0565b80601f016020809104026020016040519081016040528092919081815260200182805461034c90610ed0565b80156103995780601f1061036e57610100808354040283529160200191610399565b820191906000526020600020905b81548152906001019060200180831161037c57829003601f168201915b5050505050815260200160048201548152505081526020019060010190610237565b50505050905090565b60005481565b600180546103d790610ed0565b80601f016020809104026020016040519081016040528092919081815260200182805461040390610ed0565b80156104505780601f1061042557610100808354040283529160200191610450565b820191906000526020600020905b81548152906001019060200180831161043357829003601f168201915b505050505081565b7f000000000000000000000000000000000000000000000000000000000000000081565b60008034116104c0576040517f08c379a00000000000000000000000000000000000000000000000000000000081526004016104b790610f4d565b60405180910390fd5b7f000000000000000000000000000000000000000000000000000000000000000073ffffffffffffffffffffffffffffffffffffffff163373ffffffffffffffffffffffffffffffffffffffff160361054e576040517f08c379a000000000000000000000000000000000000000000000000000000000815260040161054590610fb9565b60405180910390fd5b60007f000000000000000000000000000000000000000000000000000000000000000060643461057e9190611037565b6105889190611068565b90506000813461059891906110c2565b9050346000808282546105ab91906110f6565b925050819055506001600260008282546105c591906110f6565b925050819055506001600360008773ffffffffffffffffffffffffffffffffffffffff1673ffffffffffffffffffffffffffffffffffffffff168152602001908152602001600020600082825461061c91906110f6565b9250508190555061064d7f000000000000000000000000000000000000000000000000000000000000000083610822565b506106588582610822565b5060046040518060a001604052803373ffffffffffffffffffffffffffffffffffffffff1681526020018773ffffffffffffffffffffffffffffffffffffffff16815260200183815260200186815260200142815250908060018154018082558091505060019003906000526020600020906005020160009091909190915060008201518160000160006101000a81548173ffffffffffffffffffffffffffffffffffffffff021916908373ffffffffffffffffffffffffffffffffffffffff16021790555060208201518160010160006101000a81548173ffffffffffffffffffffffffffffffffffffffff021916908373ffffffffffffffffffffffffffffffffffffffff16021790555060408201518160020155606082015181600301908161078491906112f8565b506080820151816004015550508473ffffffffffffffffffffffffffffffffffffffff163373ffffffffffffffffffffffffffffffffffffffff167f681ddc67ea8796d2489979f5fc2ea2eb0f2d44ff3f11f061a191928a1f3d9a0683426040516107f09291906113ca565b60405180910390a360019250505092915050565b60036020528060005260406000206000915090505481565b60025481565b6000816000541015610869576040517f08c379a00000000000000000000000000000000000000000000000000000000081526004016108609061143f565b60405180910390fd5b61087383836108e5565b8160008082825461088491906110c2565b925050819055508273ffffffffffffffffffffffffffffffffffffffff167fdf273cb619d95419a9cd0ec88123a0538c85064229baa6363788f743fff90deb83426040516108d39291906113ca565b60405180910390a26001905092915050565b60008273ffffffffffffffffffffffffffffffffffffffff168260405161090b90611490565b60006040518083038185875af1925050503d8060008114610948576040519150601f19603f3d011682016040523d82523d6000602084013e61094d565b606091505b505090508061095b57600080fd5b505050565b6000819050919050565b61097381610960565b82525050565b600060208201905061098e600083018461096a565b92915050565b600081519050919050565b600082825260208201905092915050565b6000819050602082019050919050565b600073ffffffffffffffffffffffffffffffffffffffff82169050919050565b60006109eb826109c0565b9050919050565b6109fb816109e0565b82525050565b610a0a81610960565b82525050565b600081519050919050565b600082825260208201905092915050565b60005b83811015610a4a578082015181840152602081019050610a2f565b83811115610a59576000848401525b50505050565b6000601f19601f8301169050919050565b6000610a7b82610a10565b610a858185610a1b565b9350610a95818560208601610a2c565b610a9e81610a5f565b840191505092915050565b600060a083016000830151610ac160008601826109f2565b506020830151610ad460208601826109f2565b506040830151610ae76040860182610a01565b5060608301518482036060860152610aff8282610a70565b9150506080830151610b146080860182610a01565b508091505092915050565b6000610b2b8383610aa9565b905092915050565b6000602082019050919050565b6000610b4b82610994565b610b55818561099f565b935083602082028501610b67856109b0565b8060005b85811015610ba35784840389528151610b848582610b1f565b9450610b8f83610b33565b925060208a01995050600181019050610b6b565b50829750879550505050505092915050565b60006020820190508181036000830152610bcf8184610b40565b905092915050565b600082825260208201905092915050565b6000610bf382610a10565b610bfd8185610bd7565b9350610c0d818560208601610a2c565b610c1681610a5f565b840191505092915050565b60006020820190508181036000830152610c3b8184610be8565b905092915050565b610c4c816109e0565b82525050565b6000602082019050610c676000830184610c43565b92915050565b6000604051905090565b600080fd5b600080fd5b610c8a816109e0565b8114610c9557600080fd5b50565b600081359050610ca781610c81565b92915050565b600080fd5b600080fd5b7f4e487b7100000000000000000000000000000000000000000000000000000000600052604160045260246000fd5b610cef82610a5f565b810181811067ffffffffffffffff82111715610d0e57610d0d610cb7565b5b80604052505050565b6000610d21610c6d565b9050610d2d8282610ce6565b919050565b600067ffffffffffffffff821115610d4d57610d4c610cb7565b5b610d5682610a5f565b9050602081019050919050565b82818337600083830152505050565b6000610d85610d8084610d32565b610d17565b905082815260208101848484011115610da157610da0610cb2565b5b610dac848285610d63565b509392505050565b600082601f830112610dc957610dc8610cad565b5b8135610dd9848260208601610d72565b91505092915050565b60008060408385031215610df957610df8610c77565b5b6000610e0785828601610c98565b925050602083013567ffffffffffffffff811115610e2857610e27610c7c565b5b610e3485828601610db4565b9150509250929050565b60008115159050919050565b610e5381610e3e565b82525050565b6000602082019050610e6e6000830184610e4a565b92915050565b600060208284031215610e8a57610e89610c77565b5b6000610e9884828501610c98565b91505092915050565b7f4e487b7100000000000000000000000000000000000000000000000000000000600052602260045260246000fd5b60006002820490506001821680610ee857607f821691505b602082108103610efb57610efa610ea1565b5b50919050565b7f4574686572732063616e6e6f74206265207a6572726f21000000000000000000600082015250565b6000610f37601783610bd7565b9150610f4282610f01565b602082019050919050565b60006020820190508181036000830152610f6681610f2a565b9050919050565b7f53616c65204e6f7420616c6c6f77656400000000000000000000000000000000600082015250565b6000610fa3601083610bd7565b9150610fae82610f6d565b602082019050919050565b60006020820190508181036000830152610fd281610f96565b9050919050565b7f4e487b7100000000000000000000000000000000000000000000000000000000600052601260045260246000fd5b7f4e487b7100000000000000000000000000000000000000000000000000000000600052601160045260246000fd5b600061104282610960565b915061104d83610960565b92508261105d5761105c610fd9565b5b828204905092915050565b600061107382610960565b915061107e83610960565b9250817fffffffffffffffffffffffffffffffffffffffffffffffffffffffffffffffff04831182151516156110b7576110b6611008565b5b828202905092915050565b60006110cd82610960565b91506110d883610960565b9250828210156110eb576110ea611008565b5b828203905092915050565b600061110182610960565b915061110c83610960565b9250827fffffffffffffffffffffffffffffffffffffffffffffffffffffffffffffffff0382111561114157611140611008565b5b828201905092915050565b60008190508160005260206000209050919050565b60006020601f8301049050919050565b600082821b905092915050565b6000600883026111ae7fffffffffffffffffffffffffffffffffffffffffffffffffffffffffffffffff82611171565b6111b88683611171565b95508019841693508086168417925050509392505050565b6000819050919050565b60006111f56111f06111eb84610960565b6111d0565b610960565b9050919050565b6000819050919050565b61120f836111da565b61122361121b826111fc565b84845461117e565b825550505050565b600090565b61123861122b565b611243818484611206565b505050565b5b818110156112675761125c600082611230565b600181019050611249565b5050565b601f8211156112ac5761127d8161114c565b61128684611161565b81016020851015611295578190505b6112a96112a185611161565b830182611248565b50505b505050565b600082821c905092915050565b60006112cf600019846008026112b1565b1980831691505092915050565b60006112e883836112be565b9150826002028217905092915050565b61130182610a10565b67ffffffffffffffff81111561131a57611319610cb7565b5b6113248254610ed0565b61132f82828561126b565b600060209050601f8311600181146113625760008415611350578287015190505b61135a85826112dc565b8655506113c2565b601f1984166113708661114c565b60005b8281101561139857848901518255600182019150602085019450602081019050611373565b868310156113b557848901516113b1601f8916826112be565b8355505b6001600288020188555050505b505050505050565b60006040820190506113df600083018561096a565b6113ec602083018461096a565b9392505050565b7f496e737566666963656e742046756e6421000000000000000000000000000000600082015250565b6000611429601183610bd7565b9150611434826113f3565b602082019050919050565b600060208201905081810360008301526114588161141c565b9050919050565b600081905092915050565b50565b600061147a60008361145f565b91506114858261146a565b600082019050919050565b600061149b8261146d565b915081905091905056fea2646970667358221220900e309a83d4026d1c61eb35cfe7550abf47b20652c3bd98416b206d08c4c7f164736f6c634300080f0033",
  "immutableReferences": {
    "3": [
      {
        "length": 32,
        "start": 1114
      },
      {
        "length": 32,
        "start": 1218
      },
      {
        "length": 32,
        "start": 1576
      }
    ],
    "9": [
      {
        "length": 32,
        "start": 497
      },
      {
        "length": 32,
        "start": 1362
      }
    ]
  },
  "source": "// SPDX-License-Identifier: MIT\r\npragma solidity ^0.8.15;\r\n\r\ncontract ComicStore {\r\n    // Defining store variables\r\n    address public immutable storeOwner;\r\n    uint256 public storeAcc;\r\n    string public storeName;\r\n    uint256 public immutable TaxPercent;\r\n    uint256 public storeSales;\r\n\r\n    // Tracking users number of sales\r\n    mapping(address => uint256) public salesOf;\r\n\r\n    // Declaring Events within each sale\r\n    event Sale(\r\n        address indexed buyer,\r\n        address indexed seller,\r\n        uint256 amount,\r\n        uint256 timestamp\r\n    );\r\n\r\n    event Withdrawal(\r\n        address indexed receiver,\r\n        uint256 amount,\r\n        uint256 timestamp\r\n    );\r\n\r\n    // Structuring the sales object\r\n    struct SalesStruct {\r\n        address buyer;\r\n        address seller;\r\n        uint256 amount;\r\n        string purpose;\r\n        uint256 timestamp;\r\n    }\r\n\r\n    SalesStruct[] sales;\r\n\r\n    // Initializing the store\r\n    constructor(\r\n        string memory _storeName,\r\n        address _storeOwner,\r\n        uint256 _TaxPercent\r\n    ) {\r\n        storeName = _storeName;\r\n        storeOwner = _storeOwner;\r\n        TaxPercent = _TaxPercent;\r\n        storeAcc = 0;\r\n    }\r\n\r\n    // Performing sales payment\r\n    function payNow(address seller, string memory purpose)\r\n        public\r\n        payable\r\n        returns (bool success)\r\n    {\r\n        // Validating payments\r\n        require(msg.value > 0, \"Ethers cannot be zerro!\");\r\n        require(msg.sender != storeOwner, \"Sale Not allowed\");\r\n\r\n        // Calculating up cost and fee\r\n        uint256 fee = (msg.value / 100) * TaxPercent;\r\n        uint256 cost = msg.value - fee;\r\n\r\n        // Assigning sales and payment to store and product owner\r\n        storeAcc += msg.value;\r\n        storeSales += 1;\r\n        salesOf[seller] += 1;\r\n\r\n        // Cashing out to sales party\r\n        withdrawMoneyTo(storeOwner, fee);\r\n        withdrawMoneyTo(seller, cost);\r\n\r\n        // Recording sales in smart contract\r\n        sales.push(\r\n            SalesStruct(msg.sender, seller, cost, purpose, block.timestamp)\r\n        );\r\n\r\n        // Captures sales data on event\r\n        emit Sale(msg.sender, seller, cost, block.timestamp);\r\n        return true;\r\n    }\r\n\r\n    // Sends ethers to a specified address\r\n    function _payTo(address _to, uint256 _amount) internal {\r\n        (bool success1, ) = payable(_to).call{value: _amount}(\"\");\r\n        require(success1);\r\n    }\r\n\r\n    // Performs ethers transfer\r\n    function withdrawMoneyTo(address receiver, uint256 amount)\r\n        internal\r\n        returns (bool success)\r\n    {\r\n        require(storeAcc >= amount, \"Insufficent Fund!\");\r\n\r\n        _payTo(receiver, amount);\r\n        storeAcc -= amount;\r\n\r\n        // Captures transfer data on event\r\n        emit Withdrawal(receiver, amount, block.timestamp);\r\n        return true;\r\n    }\r\n\r\n    // Retreives all processed sales from smart contract\r\n    function getAllSales() public view returns (SalesStruct[] memory) {\r\n        return sales;\r\n    }\r\n}\r\n",
  "sourcePath": "/mnt/e/dev_projects/ct_walkthrough/block_chain/ct_capstone/contracts/ComicStore.sol",
  "compiler": {
    "name": "solc",
    "version": "0.8.15+commit.e14f2714.Emscripten.clang"
  },
  "schemaVersion": "3.4.2",
  "updatedAt": "2022-08-12T04:44:36.686Z",
  "networkType": "ethereum",
  "devdoc": {
    "kind": "dev",
    "methods": {},
    "version": 1
  },
  "userdoc": {
    "kind": "user",
    "methods": {},
    "version": 1
  }
}